:100000000C9462000C948A000C948A000C94D6051F
:100010000C948A000C948A000C948A000C948A0038
:100020000C948A000C948A000C948A000C948A0028
:100030000C948A000C948A000C948A000C948A0018
:100040000C948C050C948A000C948A000C948A0001
:100050000C948A000C948A000C948A000C948A00F8
:100060000C948A000C948A000000000024002700F1
:100070002A0000000000250028002B0000000000DE
:1000800023002600290004040404040404040202DA
:100090000202020203030303030301020408102007
:1000A0004080010204081020010204081020000012
:1000B0000008000201000003040700000000000027
:1000C0000000CE0811241FBECFEFD8E0DEBFCDBFA9
:1000D00011E0A0E0B1E0E4E1F7E102C005900D928B
:1000E000AA39B107D9F721E0AAE9B1E001C01D9210
:1000F000AC3CB207E1F710E0C2E6D0E004C02197C3
:10010000FE010E942B09C136D107C9F70E9476066D
:100110000C94880B0C940000CF92DF92EF92FF9228
:100120000F931F93CF93DF936C017A018B01C0E093
:10013000D0E0CE15DF0589F0D8016D918D01D60193
:10014000ED91FC910190F081E02DC6010995892B7C
:1001500011F47E0102C02196ECCFC701DF91CF914F
:100160001F910F91FF90EF90DF90CF900895833013
:1001700081F028F4813099F08230A1F00895873021
:10018000A9F08830B9F08430D1F4809180008F7D5F
:1001900003C0809180008F7780938000089584B59C
:1001A0008F7702C084B58F7D84BD08958091B000A3
:1001B0008F7703C08091B0008F7D8093B000089549
:1001C000CF93DF93282F30E0F901E255FF4F849160
:1001D000F901E656FF4FD491F901EA57FF4FC49158
:1001E000CC2391F081110E94B700EC2FF0E0EE0FCC
:1001F000FF1FE458FF4FA591B491EC91ED2381E0EE
:1002000090E021F480E002C080E090E0DF91CF91A7
:1002100008951F93CF93DF93282F30E0F901E25523
:10022000FF4F8491F901E656FF4FD491F901EA5747
:10023000FF4FC491CC23C9F0162F81110E94B70043
:10024000EC2FF0E0EE0FFF1FEE58FF4FA591B49199
:100250008FB7F894111105C09C91ED2FE095E9231B
:1002600002C0EC91ED2BEC938FBFDF91CF911F91EA
:100270000895CF93DF9390E0FC01E656FF4F249161
:10028000FC01EA57FF4F8491882361F190E0880FC9
:10029000991FFC01E859FF4FC591D491FC01EE581C
:1002A000FF4FA591B491611109C09FB7F89488815F
:1002B000209582238883EC912E230BC0623061F459
:1002C0009FB7F8943881822F809583238883EC919F
:1002D0002E2B2C939FBF06C08FB7F894E8812E2B4E
:1002E00028838FBFDF91CF9108953FB7F894809115
:1002F000A1019091A201A091A301B091A40126B502
:10030000A89B05C02F3F19F00196A11DB11D3FBF4D
:10031000BA2FA92F982F8827820F911DA11DB11DDB
:10032000BC01CD0143E0660F771F881F991F4A95D6
:10033000D1F708958F929F92AF92BF92CF92DF92A2
:10034000EF92FF926B017C010E9475014B015C01F1
:10035000C114D104E104F104F1F00E947501DC0143
:10036000CB0188199909AA09BB09883E9340A105C8
:10037000B10570F321E0C21AD108E108F10888EE56
:10038000880E83E0981EA11CB11CC114D104E104A5
:10039000F10419F7DDCFFF90EF90DF90CF90BF9081
:1003A000AF909F908F900895EF92FF921F93CF93FD
:1003B000DF931F92CDB7DEB77C01162FF894FC01B6
:1003C000908981899CBD8DBD60E0858549830E94AF
:1003D000090161E04981413009F060E0F70184855D
:1003E0000E94090188E291E00197F1F71EBD00002B
:1003F0000DB407FEFDCF8EB588E291E00197F1F7CD
:1004000061E0F70185850E94090178940F90DF91E2
:10041000CF911F91FF90EF900895DC01ED91FC9139
:100420000284F385E02D41E0099581E090E0089594
:10043000DC01ED91FC910284F385E02D40E009940C
:10044000CF93DF93CDB7DEB728970FB6F894DEBF12
:100450000FBECDBF1D8220E42E8334E13F8334E5FF
:10046000388719822A8320E12B8320E52C83FC0125
:100470002781621710F06FEF620FFC01308570E08A
:10048000FE01E60FF71F303121F4243011F46181B1
:1004900001C06581606828960FB6F894DEBF0FBE74
:1004A000CDBFDF91CF910C9418020F931F93CF9380
:1004B000DF93EC01423018F08C8188608C834F838D
:1004C0006887222329F0413019F48C8184608C8361
:1004D00064E670E080E090E00E949A016C8164FD27
:1004E00031C0E881F9810284F385E02D42E063E0C8
:1004F000CE01099584E293E20197F1F7E881F98151
:100500000284F385E02D42E063E0CE01099508E224
:1005100011E0C8010197F1F7E881F9810284F385C0
:10052000E02D42E063E0CE010995C8010197F1F7A3
:10053000E881F9810284F385E02D42E062E0CE019A
:10054000099517C06062CE010E94180284E293E20E
:100550000197F1F76C816062CE010E94180208E2F7
:1005600011E0C8010197F1F76C816062CE010E9431
:100570001802C8010197F1F76C816062CE010E94F8
:10058000180284E790E00197F1F784E08D836CE036
:10059000CE010E94180261E0CE010E9418028CE98F
:1005A0009FE00197F1F782E08E8366E0CE010E9422
:1005B0001802E881F9810084F185E02D6FEFCE010A
:1005C000DF91CF911F910F91099408950895CF93D2
:1005D000CFB7F89480919B01811127C0E0E9F0E04A
:1005E0008491E4EAF0E09491E82FF0E0EE0FFF1F31
:1005F000E859FF4FA591B491EC91E92321F461E012
:100600008AE00E94090161E08AE00E9439018CB50C
:1006100080618CBD8CB580648CBD61E08DE00E94F2
:10062000390161E08BE00E94390180919B018F5F6D
:1006300080939B01CFBFCF910895EF92FF920F93CC
:100640001F93CF93DF931F92CDB7DEB77C01162F98
:10065000042F29830E94E70261E0D7011B968C9149
:100660000E94390161E0F70185850E94390161E04E
:10067000D7011C968C910E94390161E0F7018385B6
:100680000E94090161E0D7011C968C910E9409012A
:1006900061E0F70185850E94090160E0D7011B96A2
:1006A0008C910E94090162E070E080E090E00E947D
:1006B0009A01D701ED91FC910284F385E02D40E091
:1006C00060E3C701099562E070E080E090E00E947D
:1006D0009A0161E0F70183850E940901D701ED913C
:1006E000FC910284F385E02D40E060E3C7010995A9
:1006F000D701ED91FC910284F385E02D40E060E3A9
:10070000C7010995D701ED91FC910284F385E02D95
:1007100040E069E3C7010995D701ED91FC9102849E
:10072000F385E02D40E064E1C7010995D701ED9123
:10073000FC910284F385E02D40E066E5C701099550
:10074000D701ED91FC910284F385E02D40E06DE648
:10075000C7010995D701ED91FC910284F385E02D45
:1007600040E060E7C7010995D701ED91FC91028453
:10077000F385E02D40E06CE0C7010995D701ED91CC
:10078000FC910284F385E02D40E066E0C701099505
:10079000D701ED91FC910284F385E02D40E061E00A
:1007A000C70109956AE070E080E090E00E949A013C
:1007B0002981402F612FC7010E94550261E0C701C6
:1007C0000E9418028CE99FE00197F1F760E0C701F1
:1007D0000F90DF91CF911F910F91FF90EF900C94AC
:1007E0002002EF92FF920F931F93CF93DF938C0120
:1007F00060E08EE00E940901CFE0D0E0EE24E394B7
:10080000F12C60E080E10E94090197010C2E02C0EA
:10081000220F331F0A94E2F72023312361E0232BB8
:1008200009F460E08FE00E94090161E080E10E942C
:100830000901219730F761E08EE00E9409011093D1
:10084000A8010093A701DF91CF911F910F91FF9015
:10085000EF900895009769F0FC0101900020E9F7FE
:100860003197AF01481B590BBC018AEB91E00C9406
:100870008C0080E090E008958F929F92AF92BF929B
:100880000F931F93CF93DF93CDB7DEB7A1970FB62A
:10089000F894DEBF0FBECDBF19A2423008F44AE083
:1008A0008E010F5D1F4F842E912CA12CB12CA50120
:1008B00094010E94F508E62FB901CA0101501109FF
:1008C000EA3014F4E05D01C0E95CD801EC93232B1D
:1008D000242B252B61F7C8010E942A04A1960FB68C
:1008E000F894DEBF0FBECDBFDF91CF911F910F9166
:1008F000BF90AF909F908F90089560E08AEB91E059
:100900000E94200287E391E00E942A04E091060100
:10091000F0910701EE0FFF1FE75FFE4F808191818D
:100920000E942A0484E791E00C942A04AF92BF92BB
:10093000CF92DF92EF92FF920F931F93CF93DF93AB
:100940001F92CDB7DEB75C017B018B016C0182E0A9
:10095000C80ED11CF80161918F01C50169830E9405
:10096000720B6981681719F0C5010E947A0BFFEFBD
:10097000AF1ABF0AAC14BD0469F7C7010F90DF912D
:10098000CF911F910F91FF90EF90DF90CF90BF908C
:10099000AF9008950E946D0B8F929F92AF92BF927D
:1009A000CF92DF92EF92FF92CF936B017C0161E0D7
:1009B0008AEB91E00E942002A7019601C701B601CF
:1009C0000E94680B882319F08AE391E01AC046015F
:1009D0005701E894B7F82FEF3FEF4FE75FE7C50106
:1009E000B4010E94680B81110FC02FEF3FEF4FE75A
:1009F0005FE7C501B4010E949E0918162CF48EE32E
:100A000091E00E942A047BC02FEF3FEF4FE75FE4A5
:100A1000C701B6010E94F60A18161CF482E491E0A0
:100A2000F0CF2FEF3FEF4FE75FECC701B6010E9419
:100A30009E0987FDF3CF20E030E0A901C701B60190
:100A40000E949E0987FF0FC0E091BA01F091BB019F
:100A50000190F081E02D6DE28AEB91E00995F7FAC3
:100A6000F094F7F8F0942EE632E143E05AE3C70140
:100A7000B6010E9432096B017C010E94150A4B01EC
:100A80005C010E94440A9B01AC01C701B6010E94AF
:100A900031096B017C014AE0C501B4010E943C04AC
:100AA000E091BA01F091BB010190F081E02D6EE27E
:100AB0008AEB91E00995C4E0C15009F120E030E0F3
:100AC00040E251E4C701B6010E94FB0A4B015C0100
:100AD0000E94150A6B01E12CF12C4AE0C701B60116
:100AE0000E943C04C701B6010E94440A9B01AC016C
:100AF000C501B4010E9431096B017C01DDCF86E4A0
:100B000091E0CF91FF90EF90DF90CF90BF90AF90AA
:100B10009F908F900C942A041F920F920FB60F9201
:100B200011242F933F938F939F93AF93BF93809103
:100B30009D0190919E01A0919F01B091A0013091E3
:100B40009C0126E0230F2D3720F40296A11DB11D34
:100B500005C029E8230F0396A11DB11D20939C0118
:100B600080939D0190939E01A0939F01B093A0015B
:100B70008091A1019091A201A091A301B091A40143
:100B80000196A11DB11D8093A1019093A201A09394
:100B9000A301B093A401BF91AF919F918F913F9119
:100BA0002F910F900FBE0F901F9018951F920F92CC
:100BB0000FB60F9211242F934F935F936F937F93F0
:100BC0008F939F93AF93BF9383B182FB222720F92A
:100BD00081FD0AC080919A01211103C0811171C069
:100BE0000DC081110BC050C080919A01211103C02A
:100BF00081114AC003C0882309F463C020939A017D
:100C00004091B6015091B7016091B8017091B9015E
:100C10008091A5019091A601A0E0B0E04817590786
:100C20006A077B07DCF04091B6015091B7016091F3
:100C3000B8017091B9018091B4019091B501A0E023
:100C4000B0E084179507A607B70744F08091B60176
:100C50009091B701A091B801B091B9018093B6010C
:100C60009093B701A093B801B093B901BF91AF9130
:100C70009F918F917F916F915F914F912F910F90E5
:100C80000FBE0F901F9018958091B6019091B701FB
:100C9000A091B801B091B9014091040150910501B2
:100CA000052E000C660B770B841B950BA60BB70B60
:100CB0008093B6019093B701A093B801B093B901A6
:100CC0009DCF4091B6015091B7016091B8017091EC
:100CD000B9018091040190910501092E000CAA0B25
:100CE000BB0B840F951FA61FB71FE2CFCF93DF93D7
:100CF0001F92CDB7DEB7789484B5826084BD84B589
:100D0000816084BD85B5826085BD85B5816085BD06
:100D100080916E00816080936E00109281008091BE
:100D20008100826080938100809181008160809346
:100D30008100809180008160809380008091B1006B
:100D400084608093B1008091B00081608093B00096
:100D500080917A00846080937A0080917A0082602A
:100D600080937A0080917A008E7F80937A008091C0
:100D70007A00806880937A001092C10061E085E07B
:100D80000E94390161E085E00E94090162E08AE089
:100D90000E94390162E089E00E94390162E082E04C
:100DA0000E94390162E083E00E94390161E08EE037
:100DB0000E94390161E08EE00E94090161E08FE04C
:100DC0000E94390161E080E10E94390161E080E127
:100DD0000E94090160E08FE00E94090161E084E067
:100DE0000E94390160E084E00E9409018FB78068A9
:100DF0008FBF81E08093680084E080936B0081E086
:100E000090E09093AA018093A901E7E2EE2EE1E041
:100E1000FE2E0BEA11E0F7016191719181919191A0
:100E20007F012FEC37E245ED53E40E94FB0A20E0FE
:100E300030E040E05FE30E9432090E94150AF801A9
:100E4000619371938F01F7E3EF16F1E0FF0619F755
:100E5000E0910601F0910701EE0FFF1FE755FE4FED
:100E60008081918190930501809304010E94E702A3
:100E700061E070E080E090E00E949A0120E042E0B2
:100E800068E08AEB91E00E941D0380E090E00E9400
:100E9000720B8E3B29F58EEC96E69093A60180931B
:100EA000A5018FEF9FEF9093B5018093B40106EBFE
:100EB00011E065E0E62EF12CC7010E94720BF801EB
:100EC00081938F01FFEFEF1AFF0A89E0E816F10422
:100ED00099F78FEF9FEF9093A8018093A70142C0ED
:100EE00060E08AEB91E00E94200282E591E00E949E
:100EF0002A0460ED77E080E090E00E949A018EEC99
:100F000096E69093A6018093A5018FEF9FEF9093B3
:100F1000B5018093B4019093A8018093A7018FEF4E
:100F20009FEFA0E0B0E08093B6019093B701A0934B
:100F3000B801B093B90165EA71E081E090E00E94E8
:100F4000960464EB71E083E090E00E94960467EA07
:100F500071E085E090E00E9496046EEB80E090E006
:100F60000E947A0B8091A7019091A8010E94F10341
:100F70000E947D048091B6019091B701A091B801C3
:100F8000B091B901BC0180E090E00E94440A2FECCE
:100F900037E245ED53E40E94A3099B01AC0167EEE3
:100FA0007BEB89E193E40E9431090E94CC0405E0C7
:100FB00010E050E0E52E50E0F52EDD24D39483E0E0
:100FC0000E94E000CC24C39420910801892B31F1C8
:100FD000C12C211161C08091B4019091B5010E9492
:100FE000F10360E08AEB91E00E9420028BE591E042
:100FF0000E942A0460ED77E080E090E00E949A0170
:1010000060E084E00E940901D092080136EBA32E33
:1010100031E0B32E45E0842E912C19C02223E1F15A
:101020008091B6019091B701A091B801B091B9013A
:101030000E94F10364E170E080E090E00E949A0178
:1010400061E084E00E9409011092080125C0F501C9
:1010500061915F01C40169830E94720B6981681705
:1010600019F0C4010E947A0BFFEF8F1A9F0A89E0E2
:101070008816910461F760E08AEB91E00E942002FB
:101080008CE691E00E942A0460ED77E080E090E039
:101090000E949A010E947D0482E00E94E000BB242D
:1010A000B394892B09F0B12C8091B3018B15F8F41E
:1010B00068EC70E080E090E00E949A018091060167
:1010C000909107010196B8010E94E10890930701F1
:1010D00080930601880F991FFC01E755FE4F808120
:1010E000918190930501809304010E947D04B09248
:1010F000B3018091B6019091B701A091B801B09170
:10110000B90140910001509101016091020170917B
:101110000301481759076A077B07C9F1CC2051F032
:101120008091B6019091B701A091B801B091B90139
:101130000E94F1038091B6019091B701A091B8018E
:10114000B091B901BC0180E090E00E94440A2FEC0C
:1011500037E245ED53E40E94A3099B01AC0167EE21
:101160007BEB89E193E40E9431090E94CC048091D9
:10117000B6019091B701A091B801B091B9018093E7
:10118000000190930101A0930201B0930301E114C7
:10119000F10409F414CF0E94000011CFEAEBF1E052
:1011A0001382128287E191E09183808388E08387B4
:1011B00087E0848786E0858780E5808B81E0818B6E
:1011C000089597FB072E16F4009407D077FD09D0F9
:1011D0000E94170907FC05D03EF4909581959F4F1A
:1011E0000895709561957F4F0895A1E21A2EAA1B6C
:1011F000BB1BFD010DC0AA1FBB1FEE1FFF1FA217C7
:10120000B307E407F50720F0A21BB30BE40BF50BC3
:10121000661F771F881F991F1A9469F7609570954C
:10122000809590959B01AC01BD01CF010895AA1B4B
:10123000BB1B51E107C0AA1FBB1FA617B70710F0C1
:10124000A61BB70B881F991F5A95A9F780959095F3
:10125000BC01CD010895EE0FFF1F0590F491E02D24
:1012600009945058BB27AA270E9449090C94BC0A2C
:101270000E94AE0A38F00E94B50A20F039F49F3F70
:1012800019F426F40C94AB0A0EF4E095E7FB0C94E9
:10129000A50AE92F0E94CD0A58F3BA17620773070F
:1012A0008407950720F079F4A6F50C94EF0A0EF464
:1012B000E0950B2EBA2FA02D0B01B90190010C0166
:1012C000CA01A0011124FF27591B99F0593F50F47E
:1012D000503E68F11A16F040A22F232F342F4427D6
:1012E000585FF3CF469537952795A795F0405395CE
:1012F000C9F77EF41F16BA0B620B730B840BBAF09E
:101300009150A1F0FF0FBB1F661F771F881FC2F708
:101310000EC0BA0F621F731F841F48F4879577951C
:101320006795B795F7959E3F08F0B0CF9395880FD6
:1013300008F09927EE0F9795879508950E94810AE6
:1013400008F481E008950E94B7090C94BC0A0E9439
:10135000B50A58F00E94AE0A40F029F45F3F29F028
:101360000C94A50A51110C94F00A0C94AB0A0E943B
:10137000CD0A68F39923B1F3552391F3951B550BCF
:10138000BB27AA2762177307840738F09F5F5F4F58
:10139000220F331F441FAA1FA9F335D00E2E3AF097
:1013A000E0E832D091505040E695001CCAF72BD0AF
:1013B000FE2F29D0660F771F881FBB1F2617370700
:1013C0004807AB07B0E809F0BB0B802DBF01FF2732
:1013D00093585F4F3AF09E3F510578F00C94A50A60
:1013E0000C94F00A5F3FE4F3983ED4F3869577952A
:1013F0006795B795F7959F5FC9F7880F911D9695EB
:10140000879597F90895E1E0660F771F881FBB1F46
:10141000621773078407BA0720F0621B730B840BF3
:10142000BA0BEE1F88F7E09508950E94D50A88F060
:101430009F5798F0B92F9927B751B0F0E1F0660F98
:10144000771F881F991F1AF0BA95C9F714C0B130D9
:1014500091F00E94EF0AB1E008950C94EF0A672F13
:10146000782F8827B85F39F0B93FCCF38695779508
:101470006795B395D9F73EF49095809570956195F1
:101480007F4F8F4F9F4F0895E89409C097FB3EF41C
:1014900090958095709561957F4F8F4F9F4F9923C1
:1014A000A9F0F92F96E9BB279395F695879577953F
:1014B0006795B795F111F8CFFAF4BB0F11F460FFFF
:1014C0001BC06F5F7F4F8F4F9F4F16C0882311F057
:1014D00096E911C0772321F09EE8872F762F05C06B
:1014E000662371F096E8862F70E060E02AF09A9506
:1014F000660F771F881FDAF7880F9695879597F9FB
:101500000895990F0008550FAA0BE0E8FEEF161694
:101510001706E807F907C0F012161306E407F507E7
:1015200098F0621B730B840B950B39F40A2661F05B
:10153000232B242B252B21F408950A2609F4A140FE
:10154000A6958FEF811D811D089597F99F6780E80B
:1015500070E060E008959FEF80EC089500240A9405
:101560001616170618060906089500240A9412167E
:101570001306140605060895092E0394000C11F4B1
:10158000882352F0BB0F40F4BF2B11F460FF04C05E
:101590006F5F7F4F8F4F9F4F089557FD9058440FB7
:1015A000551F59F05F3F71F04795880F97FB991FC2
:1015B00061F09F3F79F0879508951216130614067F
:1015C000551FF2CF4695F1DF08C01616170618060C
:1015D000991FF1CF86957105610508940895E894E7
:1015E000BB2766277727CB0197F908950E94810AC8
:1015F00008F48FEF08950E940E0B0C94BC0A0E9411
:10160000AE0A38F00E94B50A20F0952311F00C9430
:10161000A50A0C94AB0A11240C94F00A0E94CD0A7E
:1016200070F3959FC1F3950F50E0551F629FF00135
:10163000729FBB27F00DB11D639FAA27F00DB11D4E
:10164000AA1F649F6627B00DA11D661F829F2227D7
:10165000B00DA11D621F739FB00DA11D621F839F5E
:10166000A00D611D221F749F3327A00D611D231F34
:10167000849F600D211D822F762F6A2F11249F5782
:1016800050409AF0F1F088234AF0EE0FFF1FBB1F85
:10169000661F771F881F91505040A9F79E3F510544
:1016A00080F00C94A50A0C94F00A5F3FE4F3983E96
:1016B000D4F3869577956795B795F795E7959F5FEE
:1016C000C1F7FE2B880F911D9695879597F9089580
:1016D0000E94810A880B990B089581E090E0F894AC
:1016E0000C94880BF999FECF92BD81BDF89A992789
:1016F00080B50895262FF999FECF1FBA92BD81BDFE
:1017000020BD0FB6F894FA9AF99A0FBE0196089583
:04171000F894FFCF7B
:10171400FFFF000001000100017D01810187018DAF
:10172400019401000000000D028C001D03E602E597
:1017340002D4010000803F0AD7233CCDCCCC3CCD61
:10174400CCCC3D0000803F7220006E616E00696E5B
:1017540066006F766600206D412020202020202026
:1017640020004E6F454550524F4D00574149542E6D
:101774002E2E202020202020202020004F464620EE
:10178400202020202020202020202020004C5342F4
:101794000031302075410032352075410031303040
:0A17A4002075410031206D41000066
:00000001FF
