:100000000C9462000C9489060C948A000C94EB0505
:100010000C948A000C948A000C948A000C948A0038
:100020000C948A000C948A000C948A000C948A0028
:100030000C948A000C948A000C948A000C948A0018
:100040000C94A1050C948A000C948A000C948A00EC
:100050000C948A000C948A000C948A000C948A00F8
:100060000C948A000C948A000000000024002700F1
:100070002A0000000000250028002B0000000000DE
:1000800023002600290004040404040404040202DA
:100090000202020203030303030301020408102007
:1000A0004080010204081020010204081020000012
:1000B0000008000201000003040700000000000027
:1000C0000000E20911241FBECFEFD8E0DEBFCDBF94
:1000D00011E0A0E0B1E0ECE3F9E102C005900D927F
:1000E000AE3AB107D9F721E0AEEAB1E001C01D9206
:1000F000AB3EB207E1F710E0C2E6D0E004C02197C2
:10010000FE010E943F0AC136D107C9F70E94D606F8
:100110000C949C0C0C940000CF92DF92EF92FF9213
:100120000F931F93CF93DF936C017A018B01C0E093
:10013000D0E0CE15DF0589F0D8016D918D01D60193
:10014000ED91FC910190F081E02DC6010995892B7C
:1001500011F47E0102C02196ECCFC701DF91CF914F
:100160001F910F91FF90EF90DF90CF900895833013
:1001700081F028F4813099F08230A1F00895873021
:10018000A9F08830B9F08430D1F4809180008F7D5F
:1001900003C0809180008F7780938000089584B59C
:1001A0008F7702C084B58F7D84BD08958091B000A3
:1001B0008F7703C08091B0008F7D8093B000089549
:1001C0001F93CF93DF93282F30E0F901E255FF4FC3
:1001D0008491F901E656FF4FD491F901EA57FF4F98
:1001E000C491CC23C9F0162F81110E94B700EC2FC7
:1001F000F0E0EE0FFF1FEE58FF4FA591B4918FB7BF
:10020000F894111105C09C91ED2FE095E92302C0EF
:10021000EC91ED2BEC938FBFDF91CF911F9108955F
:10022000CF93DF9390E0FC01E656FF4F2491FC0151
:10023000EA57FF4F8491882361F190E0880F991F5E
:10024000FC01E859FF4FC591D491FC01EE58FF4FD6
:10025000A591B491611109C09FB7F8948881209548
:1002600082238883EC912E230BC0623061F49FB708
:10027000F8943881822F809583238883EC912E2BEC
:100280002C939FBF06C08FB7F894E8812E2B28834C
:100290008FBFDF91CF9108953FB7F8948091B70158
:1002A0009091B801A091B901B091BA0126B5A89B6F
:1002B00005C02F3F19F00196A11DB11D3FBFBA2FF8
:1002C000A92F982F8827820F911DA11DB11DBC0158
:1002D000CD0143E0660F771F881F991F4A95D1F71C
:1002E00008958F929F92AF92BF92CF92DF92EF923A
:1002F000FF926B017C010E944C014B015C01C11417
:10030000D104E104F104F1F00E944C01DC01CB01C5
:1003100088199909AA09BB09883E9340A105B1052E
:1003200070F321E0C21AD108E108F10888EE880EC6
:1003300083E0981EA11CB11CC114D104E104F10496
:1003400019F7DDCFFF90EF90DF90CF90BF90AF9087
:100350009F908F900895EF92FF921F93CF93DF931A
:100360001F92CDB7DEB77C01162FF894FC0190895F
:1003700081899CBD8DBD60E0858549830E94E00038
:1003800061E04981413009F060E0F70184850E9415
:10039000E00088E291E00197F1F71EBD00000DB486
:1003A00007FEFDCF8EB588E291E00197F1F761E09D
:1003B000F70185850E94E00078940F90DF91CF913E
:1003C0001F91FF90EF900895DC01ED91FC91028464
:1003D000F385E02D41E0099581E090E00895DC018E
:1003E000ED91FC910284F385E02D40E00994CF93D8
:1003F000DF93CDB7DEB728970FB6F894DEBF0FBEF8
:10040000CDBF1D8220E42E8334E13F8334E538875D
:1004100019822A8320E12B8320E52C83FC0127818C
:10042000621710F06FEF620FFC01308570E0FE0183
:10043000E60FF71F303121F4243011F4618101C03F
:100440006581606828960FB6F894DEBF0FBECDBFF9
:10045000DF91CF910C94EF010F931F93CF93DF9314
:10046000EC01423018F08C8188608C834F83688760
:10047000222329F0413019F48C8184608C8364E656
:1004800070E080E090E00E9471016C8164FD31C0F9
:10049000E881F9810284F385E02D42E063E0CE013A
:1004A000099584E293E20197F1F7E881F9810284EA
:1004B000F385E02D42E063E0CE01099508E211E00A
:1004C000C8010197F1F7E881F9810284F385E02DF5
:1004D00042E063E0CE010995C8010197F1F7E88198
:1004E000F9810284F385E02D42E062E0CE010995B6
:1004F00017C06062CE010E94EF0184E293E201978F
:10050000F1F76C816062CE010E94EF0108E211E018
:10051000C8010197F1F76C816062CE010E94EF0182
:10052000C8010197F1F76C816062CE010E94EF0172
:1005300084E790E00197F1F784E08D836CE0CE01D1
:100540000E94EF0161E0CE010E94EF018CE99FE083
:100550000197F1F782E08E8366E0CE010E94EF0101
:10056000E881F9810084F185E02D6FEFCE01DF9104
:10057000CF911F910F91099408950895CF93CFB70C
:10058000F8948091B101811127C0E0E9F0E08491F5
:10059000E4EAF0E09491E82FF0E0EE0FFF1FE85955
:1005A000FF4FA591B491EC91E92321F461E08AE039
:1005B0000E94E00061E08AE00E9410018CB5806139
:1005C0008CBD8CB580648CBD61E08DE00E94100113
:1005D00061E08BE00E9410018091B1018F5F8093F8
:1005E000B101CFBFCF910895EF92FF920F931F9368
:1005F000CF93DF931F92CDB7DEB77C01162F042F68
:1006000029830E94BE0261E0D7011B968C910E9453
:10061000100161E0F70185850E94100161E0D701BA
:100620001C968C910E94100161E0F70183850E9465
:10063000E00061E0D7011C968C910E94E00061E02F
:10064000F70185850E94E00060E0D7011B968C9140
:100650000E94E00062E070E080E090E00E947101A2
:10066000D701ED91FC910284F385E02D40E060E339
:10067000C701099562E070E080E090E00E9471019E
:1006800061E0F70183850E94E000D701ED91FC91C4
:100690000284F385E02D40E060E3C7010995D701AE
:1006A000ED91FC910284F385E02D40E060E3C70109
:1006B0000995D701ED91FC910284F385E02D40E08E
:1006C00069E3C7010995D701ED91FC910284F38597
:1006D000E02D40E064E1C7010995D701ED91FC915F
:1006E0000284F385E02D40E066E5C7010995D70156
:1006F000ED91FC910284F385E02D40E06DE6C701A9
:100700000995D701ED91FC910284F385E02D40E03D
:1007100060E7C7010995D701ED91FC910284F3854B
:10072000E02D40E06CE0C7010995D701ED91FC9107
:100730000284F385E02D40E066E0C7010995D7010A
:10074000ED91FC910284F385E02D40E061E0C7016A
:1007500009956AE070E080E090E00E9471012981D3
:10076000402F612FC7010E942C0261E0C7010E9447
:10077000EF018CE99FE00197F1F760E0C7010F906E
:10078000DF91CF911F910F91FF90EF900C94F701A3
:10079000EF92FF920F931F93CF93DF938C0160E052
:1007A0008EE00E94E000CFE0D0E0EE24E394F12C54
:1007B00060E080E10E94E00097010C2E02C0220F51
:1007C000331F0A94E2F72023312361E0232B09F43D
:1007D00060E08FE00E94E00061E080E10E94E000C4
:1007E000219730F761E08EE00E94E0001093BC0199
:1007F0000093BB01DF91CF911F910F91FF90EF907C
:100800000895009769F0FC0101900020E9F7319705
:10081000AF01481B590BBC0189ED91E00C948C0091
:1008200080E090E008950C94010460E089ED91E08F
:100830000E94F70188E391E00E941304E091040113
:10084000F0910501EE0FFF1FE65FFE4F8081918161
:100850000E94130485E791E00C9413048F929F92F9
:10086000AF92BF920F931F93CF93DF93CDB7DEB7B5
:10087000A1970FB6F894DEBF0FBECDBF19A24230CC
:1008800008F44AE08E010F5D1F4F842E912CA12C9D
:10089000B12CA50194010E94090AE62FB901CA01F1
:1008A00001501109EA3014F4E05D01C0E95CD8019F
:1008B000EC93232B242B252B61F7C8010E94010404
:1008C000A1960FB6F894DEBF0FBECDBFDF91CF91DA
:1008D0001F910F91BF90AF909F908F9008950E94AD
:1008E000810C8F929F92AF92BF92CF92DF92EF9244
:1008F000FF92CF936B017C0161E089ED91E00E9452
:10090000F701A7019601C701B6010E947C0C88235C
:1009100019F08BE391E01AC046015701E894B7F84B
:100920002FEF3FEF4FE75FE7C501B4010E947C0C5A
:1009300081110FC02FEF3FEF4FE75FE7C501B40113
:100940000E94B20A18162CF48FE391E00E94010471
:100950007BC02FEF3FEF4FE75FE4C701B6010E9476
:100960000A0C18161CF483E491E0F0CF2FEF3FEF50
:100970004FE75FECC701B6010E94B20A87FDF3CFD3
:1009800020E030E0A901C701B6010E94B20A87FF4A
:100990000FC0E091D901F091DA010190F081E02DD2
:1009A0006DE289ED91E00995F7FAF094F7F8F0948B
:1009B0002EE632E143E05AE3C701B6010E94460A3F
:1009C0006B017C010E94290B4B015C010E94580BBA
:1009D0009B01AC01C701B6010E94450A6B017C0175
:1009E0004AE0C501B4010E942E04E091D901F091C2
:1009F000DA010190F081E02D6EE289ED91E0099538
:100A0000C4E0C15009F120E030E040E251E4C70108
:100A1000B6010E940F0C4B015C010E94290B6B0177
:100A2000E12CF12C4AE0C701B6010E942E04C70157
:100A3000B6010E94580B9B01AC01C501B4010E9494
:100A4000450A6B017C01DDCF87E491E0CF91FF90F7
:100A5000EF90DF90CF90BF90AF909F908F900C94CD
:100A60001304EF92FF920F931F93CF93DF931F9284
:100A7000CDB7DEB77C01FC0100811181C80169831B
:100A80000E94860C6981681719F0C8010E948E0CBB
:100A9000C7010F90DF91CF911F910F91FF90EF90C1
:100AA0000895EF92FF920F931F93CF93DF9300D09F
:100AB000CDB7DEB705ED11E0855D91407C01970172
:100AC000200F311FF80161918F013A832983CE01F4
:100AD00001960E943105F1E0093D1F0781F785ED80
:100AE00091E00F900F90DF91CF911F910F91FF90A8
:100AF000EF900895EF92FF920F931F93CF93DF93A0
:100B000000D0CDB7DEB78C017B01FB0160819A83F9
:100B10008983CE0101960E943105F70161810F5F43
:100B20001F4F1A830983CE0101960E943105C70128
:100B30000F900F90DF91CF911F910F91FF90EF9049
:100B400008951F920F920FB60F9211242F933F9387
:100B50008F939F93AF93BF938091B3019091B40112
:100B6000A091B501B091B6013091B20126E0230FFA
:100B70002D3720F40296A11DB11D05C029E8230FD1
:100B80000396A11DB11D2093B2018093B3019093F0
:100B9000B401A093B501B093B6018091B7019091D3
:100BA000B801A091B901B091BA010196A11DB11D82
:100BB0008093B7019093B801A093B901B093BA01A3
:100BC000BF91AF919F918F913F912F910F900FBE49
:100BD0000F901F9018951F920F920FB60F9211242D
:100BE0002F934F935F936F937F938F939F93AF93C5
:100BF000BF9383B182FB222720F981FD0AC0809137
:100C0000B001211103C081116FC00DC081110BC053
:100C10004EC08091B001211103C0811148C003C0B2
:100C2000882309F461C02093B0014091D50150910F
:100C3000D6016091D7017091D8018091CF01909138
:100C4000D001A0E0B0E0481759076A077B07CCF055
:100C50008091D5019091D601A091D701B091D80192
:100C60000097A140B1054CF48091D5019091D60137
:100C7000A091D701B091D80104C08FEF9FEFA0E001
:100C8000B0E08093D5019093D601A093D701B093A3
:100C9000D801BF91AF919F918F917F916F915F919B
:100CA0004F912F910F900FBE0F901F90189580912C
:100CB000D5019091D601A091D701B091D801409172
:100CC000020150910301052E000C660B770B841B6B
:100CD000950BA60BB70B8093D5019093D601A093EB
:100CE000D701B093D8019FCF4091D5015091D60143
:100CF0006091D7017091D801809102019091030118
:100D0000092E000CAA0BBB0B840F951FA61FB71F43
:100D1000E2CF1F920F920FB60F9211242F933F93A1
:100D20008F939F93AF93BF934A9910C02FB7F894B6
:100D30008091B3019091B401A091B501B091B60139
:100D40002FBF9093AF018093AE0125C02FB7F894C9
:100D50008091B3019091B401A091B501B091B60119
:100D60002FBF2091AE013091AF01821B930B813DCB
:100D700027E092071CF082E090E004C089973CF0E5
:100D800081E090E09093D2018093D10104C0109251
:100D9000D2011092D101BF91AF919F918F913F915C
:100DA0002F910F900FBE0F901F901895CF93DF9348
:100DB00000D0CDB7DEB7789484B5826084BD84B5A9
:100DC000816084BD85B5826085BD85B5816085BD46
:100DD00080916E00816080936E00109281008091FE
:100DE0008100826080938100809181008160809386
:100DF0008100809180008160809380008091B100AB
:100E000084608093B1008091B00081608093B000D5
:100E100080917A00846080937A0080917A00826069
:100E200080937A0080917A008E7F80937A008091FF
:100E30007A00806880937A001092C10061E085E0BA
:100E40000E94100161E085E00E94E00062E08AE01B
:100E50000E94100162E089E00E94100162E082E0DD
:100E60000E94100162E083E00E94100161E08EE0C8
:100E70000E94100161E08EE00E94E00061E08FE0DE
:100E80000E94100161E080E10E94100161E080E1B8
:100E90000E94E00060E08FE00E94E00061E084E0FA
:100EA0000E94100160E084E00E94E0008FB780683B
:100EB0008FBF81E08093680084E080936B00809115
:100EC0006900816080936900E89A81E090E09093E6
:100ED000C2018093C10108E211E0B3ECEB2EB1E056
:100EE000FB2EF80161917191819191918F012FEC0D
:100EF00037E245ED53E40E940F0C20E030E040E083
:100F00005FE30E94460A0E94290BF70161937193E7
:100F10007F01F1E008331F0721F7E0910401F09110
:100F20000501EE0FFF1FEF53FE4F808191819093DB
:100F30000301809302010E94BE0261E070E080E044
:100F400090E00E94710120E042E068E089ED91E0CC
:100F50000E94F40280E090E00E94860C8E3B81F5B6
:100F600081E090E00E94860C8093CF0182E090E0C7
:100F70000E94860C8093D00181E090E09093CE0196
:100F80008093CD01F5EDEF2EF1E0FF2E03E010E0B0
:100F9000C8010E94860CF70181937F010F5F1F4FEC
:100FA00007301105A9F783E090E09093BE0180938C
:100FB000BD018FEF9FEF9093BC018093BB013AC0BE
:100FC00060E089ED91E00E94F70183E591E00E94E5
:100FD000130460ED77E080E090E00E94710180E012
:100FE00090E49093D0018093CF018FEF9FEF909387
:100FF000BC018093BB018FEF9FEFA0E0B0E0809336
:10100000D5019093D601A093D701B093D8011A824D
:1010100019826EEBCE0101960E9431056FEC71E0F2
:1010200081E090E00E947A056BEB71E083E090E054
:101030000E947A058091BB019091BC010E94C80377
:101040000E9415048091D5019091D601A091D701FD
:10105000B091D801BC0180E090E00E94580B2FECC9
:1010600037E245ED53E40E94B70A9B01AC0167EEFD
:101070007BEB89E193E40E94450A0E94710441EBF5
:10108000642E40E0742E5DE9E52E50E0F52E69E80F
:10109000C62E60E0D62E75E0A72EB12CE0E08E2E95
:1010A000E0E09E2E01E010E0F3018491F70144900E
:1010B000F60154905520A1F081110E94B700E52D52
:1010C000F0E0EE0FFF1FE458FF4FA591B4918C9113
:1010D000482231E020E009F430E0832F922F02C053
:1010E00080E090E0F1E08F279093C0018093BF01F2
:1010F0002091000130910101892BE1F0232B09F4AB
:101100004DC08091D5019091D601A091D701B091A9
:10111000D8010E94C80364E170E080E090E00E9482
:10112000710161E084E00E94E000109201011092E0
:10113000000134C0232B91F58FEF9FEF0E94C8036D
:1011400060E089ED91E00E94F7018FE591E00E9457
:10115000130460ED77E080E090E00E94710160E0B0
:1011600084E00E94E000109301010093000180914F
:10117000BD019091BE010E94510560E089ED91E0B2
:101180000E94F70180E791E00E94130460ED77E090
:1011900080E090E00E9471010E9415042091D3012B
:1011A0003091D4018091D1019091D201232B09F08B
:1011B00094C081309105F1F4809104019091050172
:1011C0000196B5010E94F5099093050180930401F1
:1011D000880F991FFC01EF53FE4F808191819093FE
:1011E0000301809302010E9415041092D201109213
:1011F000D1014BC0029709F048C01093D40100936D
:10120000D3011092D2011092D1018091D501909119
:10121000D601A091D701B091D8019093CC018093D1
:10122000CB018091CF019091D001A0E0B0E08093FC
:10123000D5019093D601A093D701B093D80160E077
:1012400089ED91E00E94F70181E891E00E9413048A
:101250008091D5019091D601A091D701B091D8018C
:10126000BC0180E090E00E94580B2FEC37E245ED86
:1012700053E40E94B70A9B01AC0167EE7BEB89E166
:1012800093E40E94450A0E9471048091D5019091D7
:10129000D601A091D701B091D8014091060150919B
:1012A00007016091080170910901481759076A0701
:1012B0007B0709F480C08091BF019091C001892B08
:1012C00009F44CC08091D5019091D601A091D7012D
:1012D000B091D8010E94C80341C0019751F5109206
:1012E000D4011092D3018091D5019091D601A091A3
:1012F000D701B091D8019093D0018093CF01809114
:10130000CD019091CE010E9451050E94150480915B
:10131000CB019091CC01A0E0B0E08093D5019093F7
:10132000D601A093D701B093D8011092D2011092A8
:10133000D1018091D5019091D601A091D701B091B2
:10134000D801409106015091070160910801709108
:101350000901481759076A077B0769F18091D50190
:101360009091D601A091D701B091D801BC0180E045
:1013700090E00E94580B2FEC37E245ED53E40E94B9
:10138000B70A9B01AC0167EE7BEB89E193E40E9415
:10139000450A0E9471048091D5019091D601A091D7
:1013A000D701B091D8018093060190930701A093D3
:1013B0000801B09309018114910409F475CE0E94CB
:1013C000000072CEE9EDF1E01382128288E191E033
:1013D0009183808388E0838787E0848786E08587A0
:1013E00080E5808B81E0818B089597FB072E16F4B2
:1013F000009407D077FD09D00E942B0A07FC05D086
:101400003EF4909581959F4F0895709561957F4F1B
:101410000895A1E21A2EAA1BBB1BFD010DC0AA1F35
:10142000BB1FEE1FFF1FA217B307E407F50720F04D
:10143000A21BB30BE40BF50B661F771F881F991FC8
:101440001A9469F760957095809590959B01AC0111
:10145000BD01CF010895AA1BBB1B51E107C0AA1F04
:10146000BB1FA617B70710F0A61BB70B881F991F45
:101470005A95A9F780959095BC01CD010895EE0F7E
:10148000FF1F0590F491E02D09945058BB27AA271F
:101490000E945D0A0C94D00B0E94C20B38F00E948F
:1014A000C90B20F039F49F3F19F426F40C94BF0BBC
:1014B0000EF4E095E7FB0C94B90BE92F0E94E10BC9
:1014C00058F3BA17620773078407950720F079F479
:1014D000A6F50C94030C0EF4E0950B2EBA2FA02D5C
:1014E0000B01B90190010C01CA01A0011124FF27D1
:1014F000591B99F0593F50F4503E68F11A16F040CC
:10150000A22F232F342F4427585FF3CF46953795CA
:101510002795A795F0405395C9F77EF41F16BA0B8F
:10152000620B730B840BBAF09150A1F0FF0FBB1F3D
:10153000661F771F881FC2F70EC0BA0F621F731F86
:10154000841F48F4879577956795B795F7959E3FE3
:1015500008F0B0CF9395880F08F09927EE0F979574
:10156000879508950E94950B08F481E008950E94E4
:10157000CB0A0C94D00B0E94C90B58F00E94C20BEE
:1015800040F029F45F3F29F00C94B90B51110C94F1
:10159000040C0C94BF0B0E94E10B68F39923B1F388
:1015A000552391F3951B550BBB27AA276217730789
:1015B000840738F09F5F5F4F220F331F441FAA1F1D
:1015C000A9F335D00E2E3AF0E0E832D091505040D9
:1015D000E695001CCAF72BD0FE2F29D0660F771F87
:1015E000881FBB1F261737074807AB07B0E809F06D
:1015F000BB0B802DBF01FF2793585F4F3AF09E3FF2
:10160000510578F00C94B90B0C94040C5F3FE4F393
:10161000983ED4F3869577956795B795F7959F5F34
:10162000C9F7880F911D9695879597F90895E1E080
:10163000660F771F881FBB1F621773078407BA07DF
:1016400020F0621B730B840BBA0BEE1F88F7E0953A
:1016500008950E94E90B88F09F5798F0B92F9927B9
:10166000B751B0F0E1F0660F771F881F991F1AF08D
:10167000BA95C9F714C0B13091F00E94030CB1E0E3
:1016800008950C94030C672F782F8827B85F39F0E2
:10169000B93FCCF3869577956795B395D9F73EF426
:1016A00090958095709561957F4F8F4F9F4F0895CE
:1016B000E89409C097FB3EF49095809570956195EC
:1016C0007F4F8F4F9F4F9923A9F0F92F96E9BB27A2
:1016D0009395F695879577956795B795F111F8CF1E
:1016E000FAF4BB0F11F460FF1BC06F5F7F4F8F4F89
:1016F0009F4F16C0882311F096E911C0772321F07F
:101700009EE8872F762F05C0662371F096E8862F16
:1017100070E060E02AF09A95660F771F881FDAF76D
:10172000880F9695879597F90895990F0008550F9A
:10173000AA0BE0E8FEEF16161706E807F907C0F057
:1017400012161306E407F50798F0621B730B840B5F
:10175000950B39F40A2661F0232B242B252B21F439
:1017600008950A2609F4A140A6958FEF811D811DD9
:10177000089597F99F6780E870E060E008959FEF13
:1017800080EC089500240A94161617061806090618
:10179000089500240A9412161306140605060895E7
:1017A000092E0394000C11F4882352F0BB0F40F46F
:1017B000BF2B11F460FF04C06F5F7F4F8F4F9F4FAF
:1017C000089557FD9058440F551F59F05F3F71F031
:1017D0004795880F97FB991F61F09F3F79F0879598
:1017E0000895121613061406551FF2CF4695F1DF21
:1017F00008C0161617061806991FF1CF86957105B1
:10180000610508940895E894BB2766277727CB01E4
:1018100097F908950E94950B08F48FEF08950E94A0
:10182000220C0C94D00B0E94C20B38F00E94C90B02
:1018300020F0952311F00C94B90B0C94BF0B1124DC
:101840000C94040C0E94E10B70F3959FC1F3950F6B
:1018500050E0551F629FF001729FBB27F00DB11D34
:10186000639FAA27F00DB11DAA1F649F6627B00DC4
:10187000A11D661F829F2227B00DA11D621F739FAD
:10188000B00DA11D621F839FA00D611D221F749FBB
:101890003327A00D611D231F849F600D211D822F02
:1018A000762F6A2F11249F5750409AF0F1F0882329
:1018B0004AF0EE0FFF1FBB1F661F771F881F915056
:1018C0005040A9F79E3F510580F00C94B90B0C9441
:1018D000040C5F3FE4F3983ED4F3869577956795C3
:1018E000B795F795E7959F5FC1F7FE2B880F911D80
:1018F0009695879597F908950E94950B880B990BFB
:10190000089581E090E0F8940C949C0CF999FECF36
:1019100092BD81BDF89A992780B50895262FF9992F
:10192000FECF1FBA92BD81BD20BD0FB6F894FA9AC2
:0C193000F99A0FBE01960895F894FFCFBD
:10193C00010001000100FFFF0000920196019C01D3
:10194C00A201A90100000000E4018C00F402BD0218
:10195C00BC02AB010000803F0AD7233CCDCCCC3C71
:10196C00CDCCCC3D0000803F7220006E616E0069D2
:10197C006E66006F766600206D41202020202020AE
:10198C00202000496E697420454550524F4D005738
:10199C004149542E2E2E20202020202020202000B3
:1019AC004F464620202020202020202020202020B0
:1019BC0000536574204D41582043757272656E74E6
:1019CC003A004C53420031302075410032352075BD
:0E19DC0041003130302075410031206D410056
:00000001FF
